:100000000C9429010C944A010C944A010C944A0165
:100010000C944A010C944A010C944A010C944A0134
:100020000C944A010C944A010C944A010C944A0124
:100030000C944A010C944A010C944A010C944A0114
:100040000C944A010C944A010C944A010C944A0104
:100050000C944A010C94760B0C944A010C944A01BE
:100060000C944A010C94670D0C944A010C944A01BB
:100070000C944A010C944A010C944A010C944A01D4
:100080000C944A010C944A010C944A010C944A01C4
:100090000C944A010C944A010C944A010C945106A8
:1000A0000C944A010C944A010C944A010C944A01A4
:1000B0000C944A010C944A010C944A010C944A0194
:1000C0000C944A010C944A010C944A010C944A0184
:1000D0000C944A010C944A010C94180F0C944A0198
:1000E0000C944A010A2323232057494649204C6592
:1000F00061766520434D44206D6F64650A00454E6E
:1001000054455220434D44204E4F524D414C210AFC
:10011000000A23232320434D44206D6F6465202A69
:100120002A2A4641494C2A2A2A205452592041471A
:1001300041494E2E2E2E0A00454E54455220434D25
:1001400044204750494F3134210A000A23232320F9
:100150005749464920456E74657220434D44206DD1
:100160006F64650A000A2323232320524554525901
:100170002120232323230A000A2323232320544955
:100180004D454F55542120232323236E000A23235A
:1001900023230A005D0A00205B524553505F4F4BFA
:1001A0003A000A2323232320575249544520434F22
:1001B0004D4D414E44204641494C55524521202346
:1001C0002323230A007D0A00203B200020575F43A1
:1001D0004D447B000A54494D454F55540A005D0A71
:1001E000000A5B4F4B3A007D0A000A577B000A5415
:1001F000494D454F55540A005D0A000A5B4F4B3A82
:10020000007D0A000A577B000A5772697465204313
:100210006F6D6D616420646F6E65210A00455252F6
:100220004F52210A000A232323232054494D454FCE
:100230005554212054525920414741494E212023F1
:100240002323230A007D0A005241575F434D447B1C
:10025000000011241FBECFEFD1E2DEBFCDBF00E012
:100260000CBF14E0A0E0B2E0ECEFFBE800E00BBF55
:1002700002C007900D92AA32B107D9F71FE0AAE297
:10028000B4E001C01D92A330B107E1F70E942B0337
:100290000C94FC450C9400000895882319F080E02C
:1002A00092E002C08CE092E00E94390D8091E80754
:1002B0009091E9076AE044E00E94F512089588E20F
:1002C000809330048093310488E192E00E94390DDC
:1002D000809132048C7F81608093320483E392E0CA
:1002E0009093A6038093A503089588E28093300439
:1002F0008093310487E392E00E94390D80913204AB
:100300008C7F8093320481E592E09093A6038093E2
:10031000A503089584E18093300488E2809331043A
:1003200085E592E00E94390D809132048C7F8260D5
:10033000809332048CE692E09093A6038093A50309
:10034000089588E28093300484E18093310481E74A
:1003500092E00E94390D80913204836080933204D0
:1003600089E892E09093A6038093A50308951F93D4
:10037000182F8FE892E00E94390D812F90E060E104
:100380000E944A0E8AE00E94310D1F9108950E943A
:100390002B0708951F93CF93DF93EC018B819C81F2
:1003A000892B91F18AEA92E00E94390D6A8163FFFC
:1003B0000AC063704B815C81888120E00E9429081B
:1003C0008FEB92E01CC062FF1CC0162F13706B8174
:1003D0007C8180E090E00E9404442FE832EC45E705
:1003E0005EE30E9470430E94D8439B01AC01888168
:1003F000612FA90120E00E94050887EC92E00E948D
:10040000390D1C821B8218C09A81892F8C7049F487
:10041000892F83700E940407888169810E941607D2
:100420000BC08091AB0780FF07C08DEC92E00E946B
:10043000390D8A81837F8A83DF91CF911F9108953F
:1004400080913C04882319F010923C04089581E0C7
:100450006EE00E94F20A81E080933C0408950E94BD
:10046000D70F892B11F480E008950E94700F0E942D
:1004700007100895CF93DF9380913504813041F0C8
:10048000813020F0833009F0C9C0A5C081E01AC0D6
:100490000E942F02882309F472C081EE92E00E942C
:1004A000390D89E19AE00E94390D87EF92E00E94B0
:1004B000390D89E19AE069EF72E00E944C4500979E
:1004C00021F483E080933504AFC089E19AE06EEFB8
:1004D00072E00E944C45009789F48CE093E00E9402
:1004E000390D1092300410923104109235048BE1D2
:1004F00093E09093A6038093A50396C089E19AE0C8
:1005000061E572E00E944C45009709F443C089E11F
:100510009AE063E372E00E944C45009709F444C0FE
:1005200089E19AE06CE173E00E944C450097E1F1AB
:1005300089E19AE06CE273E00E944C450097A1F1DA
:1005400089E19AE06CE672E00E944C450097B1F1B7
:1005500089E19AE068E473E00E944C45009771F1EC
:1005600089E19AE069E573E00E944C45009731F11A
:1005700089E19AE069E872E00E944C4527C0C09189
:10058000A503D091A603CE0161E572E00E944C451F
:10059000009719F40E94750147C0CE0163E372E031
:1005A0000E944C45009719F40E945F013DC0CE01A6
:1005B0006CE672E00E944C45009719F40E948A0193
:1005C00033C0CE0169E872E00E944C45009761F5A6
:1005D0000E94A10129C086E793E00E94390D109284
:1005E0003004109231040E942F028823E9F081EE3A
:1005F00092E00E94390D89E19AE00E94390D87EF5F
:1006000092E00E94390D89E19AE06CE773E00E9464
:100610004C45009749F41092350406C010923504F9
:1006200082E893E00E94390DDF91CF9108950E94F6
:100630003A0280913B04882369F480913504882331
:1006400029F080E394E00E94CA0108958AE294E0D0
:100650000E94CA0108950E94850C0E94B00980E2A0
:1006600092E00E94EE0688E40E94740387EC91E019
:100670000E94870387EB91E00E948D038FE00E9428
:10068000570988EE93E00E94120C80E00E945709FF
:100690008AE060E049E020E00E94A0058AE060E096
:1006A0004BE021E00E94A0058AE060E04CE021E000
:1006B0000E94A00580910E08816080930E088091B1
:1006C0000E08826080930E0880910E0884608093EB
:1006D0000E088091E8079091E9076AE044E00E94E3
:1006E000F5120E941703F5CFF8948093B80010928A
:1006F000B9008FEF8093BB0084E08093BC008091B1
:100700003D04816080933D0478940895089590930A
:10071000A8038093A703089508959093AA03809354
:10072000A9030895DF93CF930F92CDB7DEB786E983
:1007300089838981815089838F5FD9F70F90CF9109
:10074000DF910895DF93CF930F92CDB7DEB78091FD
:10075000BC0080FD71C080913D0480FF50C080913D
:100760004404882309F468C08130D1F486E9898380
:100770008981815089838F5FD9F792E090938604B5
:1007800080913F0480934604809140048093470405
:1007900010923D0485EA8093BC00909344044CC0C1
:1007A0008230E1F486E989838981815089838F5F72
:1007B000D9F7809141048F5F8093860480913F0434
:1007C000816080933F048093460410923D0485EA43
:1007D0008093BC0083E0809344042EC0833061F595
:1007E0001092440480914204909143042FEF8F3F74
:1007F000920711F1E091A703F091A8031CC080912A
:10080000BC0080FDFCCF90913E049923A9F010928A
:10081000440480913D04816080933D0410923F0424
:10082000109243041092420410924104E091A903F3
:10083000F091AA03892F19950F90CF91DF91089518
:10084000FF920F931F93182F062FF42E02C00E94C1
:10085000A2038091BC0080FDFACF809144048823DC
:10086000B1F782E08093440410933F040093420464
:1008700010924304F09241041F910F91FF9008954C
:10088000EF92FF920F931F93E82E162F042FF22E54
:1008900002C00E94A2038091BC0080FDFACF80912B
:1008A00044048823B1F781E0809344041093420408
:1008B00010924304E0923F0400934004F0924104FC
:1008C0001F910F91FF90EF9008959C018091BC00C3
:1008D00080FDFCCF80913D0480FF0CC0E7E5F4E093
:1008E000D90170E06E0F7F1F02C081918D93E617D2
:1008F000F707D9F708958091BC0080FDFCCF809167
:100900003E040895FF920F931F93CF93DF93082F18
:10091000F62EEA01122F02C00E94A2038091BC00B1
:1009200080FDFACF809144048823B1F781E0809361
:10093000440400933F048FEF9FEF90934304809310
:100940004204F09240041093410402C00E94A203AA
:100950008091BC0080FDFACF809144048823B1F7D8
:1009600080913D0480FF05C01F5FCE01612F0E9472
:100970006504DF91CF911F910F91FF900895EF9241
:10098000FF920F931F93DF93CF930F92CDB7DEB7F4
:10099000082F7B01142F02C00E94A2038091BC008B
:1009A00080FDFACF809144048823B1F786E98983DA
:1009B0008981815089838F5FD9F782E080934404D5
:1009C00000933F048FEF9FEF909343048093420482
:1009D0001093410402C00E94A2038091BC0080FDDC
:1009E000FACF809144048823B1F780913D0480FFC1
:1009F00005C01F5FC701612F0E9465040F90CF9152
:100A0000DF911F910F91FF90EF9008951F93DF9357
:100A1000CF930F92CDB7DEB7182F02C00E94A2036A
:100A20008091BC0080FDFACF809144048823B1F707
:100A300086E989838981815089838F5FD9F782E034
:100A40008093440410933F048FEF9FEF90934304EF
:100A50008093420481E08093410402C00E94A2037B
:100A6000809144048823D1F780913D0480FD02C029
:100A700080E002C0809157040F90CF91DF911F91C9
:100A800008950F931F93DF93CF930F92CDB7DEB7E7
:100A9000182F062F02C00E94A2038091BC0080FD87
:100AA000FACF809144048823B1F786E9898389814C
:100AB000815089838F5FD9F782E0809386041093F9
:100AC00046040093470410923D0485EA8093BC00DD
:100AD0000F90CF91DF911F910F910895FF920F9387
:100AE0001F93DF93CF930F92CDB7DEB7182F062F4A
:100AF000F42E02C00E94A2038091BC0080FDFACFB8
:100B0000809144048823B1F786E9898389818150E3
:100B100089838F5FD9F783E080938604109346041E
:100B200000934704F092480410923D0485EA8093B4
:100B3000BC000F90CF91DF911F910F91FF9008950E
:100B4000EF92FF920F931F93DF93CF930F92CDB746
:100B5000DEB7182F062FF42EE22E02C00E94A20349
:100B60008091BC0080FDFACF809144048823B1F7C6
:100B700086E989838981815089838F5FD9F784E0F1
:100B8000809386041093460400934704F09248042F
:100B9000E092490410923D0485EA8093BC000F90D6
:100BA000CF91DF911F910F91FF90EF900895DF9209
:100BB000EF92FF920F931F93DF93CF930F92CDB7D6
:100BC000DEB7182FF62EE42ED22E02C00E94A2030A
:100BD0008091BC0080FDFACF809144048823B1F756
:100BE00086E989838981815089838F5FD9F785E080
:100BF0008093860410934604F0924704E0924804E0
:100C0000D092490400934A0410923D0485EA8093EF
:100C1000BC000F90CF91DF911F910F91FF90EF904B
:100C2000DF900895EF92FF920F931F93DF93CF937E
:100C30000F92CDB7DEB7082FF62EE72E142F02C085
:100C40000E94A2038091BC0080FDFACF80914404F1
:100C50008823B1F786E989838981815089838F5FF1
:100C6000D9F7412F4F5F4093860400934604A7E4D1
:100C7000B4E08F2D9E2D9C01F90102C081918D93CE
:100C80008E2F8F198417D0F310923D0485EA80933C
:100C9000BC000F90CF91DF911F910F91FF90EF90CB
:100CA00008951F920F920FB60F920BB60F92112458
:100CB0002F933F938F939F93EF93FF938091B9006E
:100CC0008832D1F0893240F48031A1F08831A1F02E
:100CD000883009F050C00EC0803459F1813420F4BE
:100CE000883309F048C041C08035B9F0883509F033
:100CF00042C02DC010924504909145048091860415
:100D0000981768F5E92FF0E0EA5BFB4F808180934C
:100D1000BB009F5F9093450418C08091450490915B
:100D2000BB00E82FF0E0EA5AFB4F90838F5F80937F
:100D300045042091450430E08091860490E00197BD
:100D40002817390714F485EC1BC085E819C0809179
:100D5000BB00E0914504F0E0EA5AFB4F80838091AC
:100D60003D04816080933D040AC08091B900809366
:100D70003E0485EA05C08091B90080933E0484E971
:100D80008093BC00FF91EF919F918F913F912F91A4
:100D90000F900BBE0F900FBE0F901F9018950895E7
:100DA0009093AE038093AD03089508959093B60396
:100DB0008093B503089508959093B0038093AF0393
:100DC000089508959093AC038093AB03089508951C
:100DD0009093B2038093B103089508959093B40360
:100DE0008093B30308958AE060E043E02091AC076C
:100DF0000E94A0050895282F8093AC078AE060E048
:100E000043E00E94A0050895282F8AE060E046E0B4
:100E10000E94A00502C00E94A2038091BC0080FD38
:100E2000FACF809144048823B1F708950F93282FB7
:100E3000062F8AE060E045E00E94D70502C00E94CC
:100E4000A2038091BC0080FDFACF809144048823E6
:100E5000B1F70F9108950F931F93DF93CF930F92E4
:100E60000F92CDB7DEB7882311F080E090C08CEEF2
:100E700097E063E00E9465042091EC078091A80749
:100E800082272093A807082F10E0C8018076907071
:100E9000892B81F0229526952770822F817080936F
:100EA000DA07269521702093DD07E091AB03F091DE
:100EB000AC031995C80186709070892B81F08091E0
:100EC000A8078695982F91709093AE0786958170AC
:100ED0008093E707E091AD03F091AE03199503FF0E
:100EE0001CC08AE06BE10E9441058AE0BE016F5F91
:100EF0007F4F42E00E94BF04298130E086E0220F4C
:100F0000331F8A95E1F78A8190E0282B392BE091F5
:100F1000AF03F091B003C901199500FF1DC08AE02D
:100F200065E10E9441058AE0BE016F5F7F4F42E0AC
:100F30000E94BF049A8180E0298130E0822B932BAC
:100F40009093E9078093E8078091A807E091B103A7
:100F5000F091B203817019958091ED078093AD07F0
:100F600083FF05C0E091B303F091B403199580911C
:100F7000EE078093AB078091A80787FF05C0E0913B
:100F8000B503F091B60319951092870481E00F9094
:100F90000F90CF91DF911F910F9108958091870459
:100FA000882369F48091030183FF09C081E0809365
:100FB00087048AE060E040E023E00E944004089556
:100FC00002C00E94A2038091BC0080FDFACF8091F4
:100FD00044048823B1F786E090E00E94120C0E943E
:100FE000CE0702C00E94A2038091BC0080FDFACF10
:100FF000809144048823B1F708958AE060E044E0DA
:101000000E946E050E94E00708951F93122F109210
:10101000C90797E09093CA078093CB076093CC07EA
:101020005093CD074093CE078AE069EC77E046E025
:101030000E9412060E94E007112349F004C00E949A
:10104000CE070E94A2038091AB0780FFF8CF1F91CB
:1010500008951F93122F1092C90798E09093CA0722
:101060008093CB076093CC075093CD074093CE0776
:101070008AE069EC77E046E00E9412060E94E007F1
:10108000112349F004C00E94CE070E94A203809160
:10109000AB0780FFF8CF1F9108958AE06DE04FEA1B
:1010A00057E024E00E9482049091B00780E02091F4
:1010B000AF07820F911D9093D8078093D707909127
:1010C000B20780E02091B107820F911D9093DC0759
:1010D0008093DB0708958AE063E04FEA57E028E158
:1010E0000E9482048091AF078093D3078091B0075C
:1010F0008093D9078091B1078093D4078091B2077C
:101100008093E6078091B3078093C8078091B40766
:101110008093C7079091B60780E02091B507820FB2
:10112000911D9093E5078093E4079091B80780E0C4
:101130002091B707820F911D9093DF078093DE0700
:101140009091BA0780E02091B907820F911D90938A
:10115000D8078093D7079091BC0780E02091BB0708
:10116000820F911D9093DC078093DB079091BE075F
:1011700080E02091BD07820F911D9093EB07809333
:10118000EA079091C00780E02091BF07820F911D70
:101190009093E3078093E2079091C20780E020914B
:1011A000C107820F911D9093E9078093E807909102
:1011B000C40780E02091C307820F911D9093E1073F
:1011C0008093E0079091C60780E02091C507820FC9
:1011D000911D9093D6078093D5070895982F8091FD
:1011E0007A0086FF03C020E030E01CC0983020F079
:1011F00088E080937B0002C010927B00977090641F
:1012000090937C0086ED80937A0080917A0086FD31
:10121000FCCF80917A00806180937A0020917800E1
:1012200030917900C90108958EBD0DB407FEFDCF40
:1012300008958FEF8EBD0DB407FEFDCF8EB50895D6
:101240008FEF8EBD0DB407FEFDCF3EB58FEF8EBD87
:101250000DB407FEFDCF2EB5932F80E030E0282B94
:10126000392BC90108959EBD0DB407FEFDCF8EBD7B
:101270000DB407FEFDCF0895FC0190E007C080810A
:101280008EBD0DB407FEFDCF9F5F31969617B8F364
:101290000895FC0190E02FEF07C02EBD0DB407FEAE
:1012A000FDCF8EB581939F5F9617B8F3089598B1DF
:1012B000937C98B998B1880F880F8C73982B98B944
:1012C0000895429898B1811184E0892B88B90895D6
:1012D000439898B1811188E0892B88B90895449882
:1012E00098B1811180E1892B88B90895459898B10A
:1012F000811180E2892B88B9089582B910921F0864
:1013000080911F0890E00797DCF3A19A26E930E06E
:10131000C90121503040892BD9F70000A19824E160
:1013200030E0C90121503040892BD9F700000895E1
:10133000A2980E947D0924EF31E0C901215030407C
:10134000892BD9F70000089581E00E9498092CE7C5
:1013500035E1C90121503040892BD9F700000895AB
:1013600020ED34E8C90121503040892BD9F7000025
:10137000A098A298A19825E030E007C010921F081D
:1013800080911F0890E00C97DCF3215030408FEFE4
:101390002F3F380799F780E30E9498092CEC38ED2D
:1013A000C90121503040892BD9F7000022E330E0F9
:1013B00007C010921F0880911F0890E00C97DCF383
:1013C000215030408FEF2F3F380799F780E30E947C
:1013D00098092CEC38EDC90121503040892BD9F700
:1013E000000025E030E007C010921F0880911F0820
:1013F00090E00C97DCF3215030408FEF2F3F3807FF
:1014000099F780E30E9498092CEC38EDC90121502E
:101410003040892BD9F7000025E030E007C010925A
:101420001F0880911F0890E00C97DCF3215030409A
:101430008FEF2F3F380799F788E30E9498092CEC2B
:1014400038EDC90121503040892BD9F7000021E047
:1014500030E007C010921F0880911F0890E00C97A1
:10146000DCF3215030408FEF2F3F380799F788E0A9
:101470000E9498092CEC38EDC90121503040892B8D
:10148000D9F7000021E030E007C010921F088091DA
:101490001F0890E00C97DCF3215030408FEF2F3F76
:1014A000380799F781E00E9498092CEC38EDC901C2
:1014B00021503040892BD9F7000021E030E007C0EF
:1014C00010921F0880911F0890E00C97DCF32150C8
:1014D00030408FEF2F3F380799F782E00E9498093C
:1014E0002CEC38EDC90121503040892BD9F7000090
:1014F00021E030E007C010921F0880911F0890E0A3
:101500000C97DCF3215030408FEF2F3F380799F7CD
:101510008CE00E9498092CEC38EDC9012150304034
:10152000892BD9F7000021E030E007C010921F0896
:1015300080911F0890E00C97DCF3215030408FEF32
:101540002F3F380799F725E030E007C010921F08B9
:1015500080911F0890E00C97DCF3215030408FEF12
:101560002F3F380799F70E94A4090895A29A0E9474
:101570007D0922E330E0C90121503040892BD9F7A1
:1015800000000895CF93DF93EC0102C00E94B60AD9
:10159000FE01219684918823C9F7DF91CF910895A8
:1015A000CF93DF93EC0103C021960E94B60A888195
:1015B0008823D1F7DF91CF9108951F93CF93DF93C5
:1015C000162FEC01C40FD11D04C021960E94B60A4B
:1015D00011508881882311F01123B9F7DF91CF9141
:1015E0001F9108956068813009F4605C862F0E9425
:1015F00098090895EF92FF920F931F938C017B013E
:101600000E94A409C8010E94C20A81E060E00E9411
:10161000F20AC7010E94C20A1F910F91FF90EF903A
:1016200008951F93142F0E94F20A04C080E20E94C2
:10163000B60A11501123D1F71F910895949916C03D
:1016400028EE33E0C90121503040892BD9F7000042
:10165000949924C028EE33E0C90121503040892BF1
:10166000D9F70000949902C081E00895939916C0BB
:1016700028EE33E0C90121503040892BD9F7000012
:1016800093990CC028EE33E0C90121503040892BDA
:10169000D9F70000939902C082E0089580E0089590
:1016A00080918A04882341F00E941E0B882311F444
:1016B00010928A0480E008950E941E0B80938A0491
:1016C00008951F9310918904112349F00E941E0B65
:1016D000882311F010E007C01092890404C00E9412
:1016E0001E0B80938904812F1F9108951F920F92E2
:1016F0000FB60F9211248F939F938091A907909119
:10170000AA0701969093AA078093A90780911F08C2
:101710008F5F80931F08809120088F5F809320083F
:101720008150893008F46AC080910E0880FF09C09A
:1017300080910F0890911008019690931008809363
:101740000F0880910E0881FF09C0809111089091C7
:1017500012080196909312088093110880910E0848
:1017600082FF09C08091130890911408019690930C
:1017700014088093130880910E0883FF09C080919C
:1017800015089091160801969093160880931508F5
:1017900080910E0884FF09C0809117089091180865
:1017A0000196909318088093170880910E0885FF82
:1017B00009C08091190890911A08019690931A080F
:1017C0008093190880910E0886FF09C080911B083C
:1017D00090911C08019690931C0880931B0880919F
:1017E0000E0887FF09C080911D0890911E08019680
:1017F00090931E0880931D08109220089F918F914E
:101800000F900FBE0F901F90189510921F08282F51
:1018100030E02F5F3F4F80911F0890E02817390775
:10182000D4F708959C0109C010921F0880911F08E9
:1018300090E00C97DCF32150304021153105A1F7E1
:101840000895DF93CF930F920F92CDB7DEB79A83AF
:10185000898389819A8101979A8389830196C9F73F
:1018600000000F900F90CF91DF910895F999FECF6E
:1018700090E092BD81BD60BDFA9AF99A0895F999F8
:10188000FECF90E092BD81BDF89A80B50895F99998
:10189000FECF12BC11BCF89A80B58A32E1F4F999F6
:1018A000FECF88E090E092BD81BDF89A80B580932C
:1018B0003501F999FECF87E090E092BD81BDF89A9D
:1018C00080B5809334011092300186E0809332011C
:1018D00088E9809331010895F999FECF12BC11BCBB
:1018E000F89A80B58A3271F4F999FECF86E190E0DA
:1018F00092BD81BDF89A00B400FE04C081E08093DF
:10190000880408951092880408950F931F93F89403
:10191000989AA098999AA19812B887EF85B983E808
:1019200088B90FEF0BB98DEF8EB901BB88E384BB8B
:10193000009302018DE780930501009308018FE376
:1019400080930B0101B914B88CE787B91AB812E07B
:101950001DB910BA87E083BB1092010196E0909305
:1019600004011092070180EC80930A011092C500D7
:1019700089E18093C4001092C0009093C20028E9CE
:101980002093C1001092350183E0809334011092BE
:10199000300190933201209331010E942B0E0E945E
:1019A000E30F14BD15BD87EC87BD08BD10936E0015
:1019B0000E94470C0E946C0C78941F910F9108951F
:1019C0000F931F93462F0DEF17E0B80150E00E94D0
:1019D0009745C8010E94D00A1F910F910895EF9278
:1019E000FF920F931F93DF93CF93CDB7DEB761972D
:1019F0000FB6F894DEBF0FBECDBF262F042F7E0199
:101A00000894E11CF11CB701422F50E00E94974559
:101A1000F70101900020E9F73197EE19FF09102F27
:101A20001E1B11165CF4115080E30E94B60A1123AC
:101A3000D1F7CE0101960E94D00A06C01195C701C8
:101A4000602F412F0E94DD0A61960FB6F894DEBF29
:101A50000FBECDBFCF91DF911F910F91FF90EF90FF
:101A60000895982F8091C00085FFFCCF9093C60009
:101A70000895FC0107C08091C00085FFFCCF31961E
:101A80009093C60090819923B1F708959C0106C0F8
:101A90008091C00085FFFCCF9093C600F9012F5FB5
:101AA0003F4F94919923A1F70895FC01E40FF11D94
:101AB00008C08091C00085FFFCCF31969093C6008E
:101AC00061509081992311F0662399F708951F9230
:101AD0000F920FB60F920BB60F9211242F933F93D4
:101AE0004F935F938F939F93EF93FF934091910454
:101AF0005091920480918F04909190049A01281B38
:101B0000390BC901845F9140F8F480918D04909164
:101B10008E042091C600FC01EC5DF74F20830196F6
:101B200090938E0480938D044F5F5F4F5093920487
:101B300040939104855F914020F010928E041092A2
:101B40008D041092230807C08091C60080939404EE
:101B500081E080932308FF91EF919F918F915F9196
:101B60004F913F912F910F900BBE0F900FBE0F9092
:101B70001F9018951092230820918F0430919004A3
:101B800080919104909192048217930711F4E0E000
:101B90001EC02F5F3F4F3093900420938F0480919D
:101BA0008B0490918C04855F914020F010928C04FE
:101BB00010928B0480918B0490918C04FC01EC5D5D
:101BC000F74FE081019690938C0480938B048E2FC5
:101BD0000895DC011092230840E050E020C02F5F00
:101BE0003F4F3093900420938F0480918B04909109
:101BF0008C04FC01EC5DF74F2081FD01E40FF51F23
:101C00002083019690938C0480938B04855F914090
:101C100020F010928C0410928B044F5F5F4F209144
:101C20008F043091900480919104909192048217D6
:101C3000930719F04617570790F2CA0108952091AB
:101C400091043091920480918F0490919004281B0C
:101C5000390BC9010895E1ECF0E080818F77808332
:101C60008091C6008093930410928C0410928B0490
:101C700010928E0410928D041092900410928F0492
:101C8000109292041092910410922308808180682F
:101C9000808308950F931F93DF93CF93CDB7DEB763
:101CA00061970FB6F894DEBF0FBECDBF462F8E01F1
:101CB0000F5F1F4FB80150E00E949745C8010E9476
:101CC000390D61960FB6F894DEBF0FBECDBFCF9130
:101CD000DF911F910F910895FF920F931F93DF9350
:101CE000CF93CDB7DEB761970FB6F894DEBF0FBEC6
:101CF000CDBF262FF42E8E010F5F1F4FB801422F4C
:101D000050E00E949745F80101900020E9F73197D3
:101D1000E01BF10B4F2D4E1B14167CF490E3415049
:101D20008091C00085FFFCCF9093C6004423B9F793
:101D3000CE0101960E94390D05C04195C8016F2D55
:101D40000E94550D61960FB6F894DEBF0FBECDBF51
:101D5000CF91DF911F910F91FF9008950F931F93E3
:101D6000DF93CF93CDB7DEB7A1970FB6F894DEBF60
:101D70000FBECDBF242F8E010F5F1F4FA80130E093
:101D80000E94B845C8010E94390DA1960FB6F8947B
:101D9000DEBF0FBECDBFCF91DF911F910F91089590
:101DA000382F01C000008091300185FFFBCF2091CA
:101DB0001B04909195048091030187FF04C02223A6
:101DC00011F091E0F8CF9093950430933601089587
:101DD000CF93DF93EC0103C021960E94D00E88813F
:101DE0008823D1F7DF91CF910895CF93DF93EC0152
:101DF00002C00E94D00EFE01219684918823C9F76B
:101E0000DF91CF9108951F93CF93DF93162FEC01AD
:101E1000C40FD11D04C021960E94D00E115088819C
:101E2000882311F01123B9F7DF91CF911F91089505
:101E30001F920F920FB60F920BB60F9211242F9391
:101E40003F934F935F938F939F93EF93FF934091B3
:101E50009C0450919D0480919A0490919B049A0156
:101E6000281B390BC901885E9340F8F480919804CF
:101E70009091990420913601FC01E65EF44F208395
:101E8000019690939904809398044F5F5F4F50930D
:101E90009D0440939C04895E934020F01092990425
:101EA000109298041092190B0CC080913601809307
:101EB000A9048091050184608093050181E08093ED
:101EC000190BFF91EF919F918F915F914F913F91EE
:101ED0002F910F900BBE0F900FBE0F901F90189573
:101EE00020919A0430919B0480919C0490919D04D0
:101EF0008217930711F4E0E025C02F5F3F4F309326
:101F00009B0420939A048091960490919704895E93
:101F1000934020F010929704109296041092190B9F
:101F2000809105018B7F80930501809196049091AB
:101F30009704FC01E65EF44FE081019690939704CC
:101F4000809396048E2F0895DC0140E050E023C07A
:101F500080919A0490919B04019690939B048093A6
:101F60009A048091960490919704FC01E65EF44FE8
:101F70002081FD01E40FF51F2083019690939704C3
:101F800080939604895E934020F0109297041092FB
:101F900096044F5F5F4F46175707D0F21092190B08
:101FA000809105018B7F80930501CB0108952091DD
:101FB0009C0430919D0480919A0490919B04281B6D
:101FC000390BC9010895E1E3F1E080818F778083C7
:101FD000809136018093A804109297041092960481
:101FE000109299041092980410929B0410929A04F3
:101FF00010929D0410929C041092190B80818068AD
:102000008083E5E0F1E080818B7F808308958A30D2
:1020100011F08D3021F59091A704992379F08A3041
:1020200019F49D3059F404C08D3041F49A3031F4E4
:102030001092A7041092A50480E008958093A7044D
:102040008091A504E82FF0E0E75EF54F10828093C1
:10205000A3041092A4041092A50481E00895909125
:10206000A5049F3F71F41092180B8FEF90E09093AE
:10207000A4048093A3041092A7041092A50482E004
:1020800008951092A704E92FF0E0E75EF54F8083F2
:102090009F5F9093A50480E0089587EB93E00E94F2
:1020A000390D8FED93E00E94E80E81EE93E00E94DF
:1020B000E80E86E990E00E94120C8FED93E00E94FA
:1020C000E80E82E390E00E94120C81EE93E00E9401
:1020D000E80E86E990E00E94120C8FED93E00E94DA
:1020E000E80E81EE93E00E94E80E8FED93E00E94EF
:1020F000E80E86E990E00E94120C87EE93E00E94C1
:10210000390D04C00E94700F0E94310D20919C0473
:1021100030919D0480919A0490919B04281739076F
:1021200089F787E094E00E94390D0895CF92DF92FD
:10213000EF92FF920F931F93082F6A017B0184E0B7
:1021400092E00E94460D802F0E94310D81E092E0C6
:102150000E94460D40E050E060E070E020919C0459
:1021600030919D0480919A0490919B04281739071F
:10217000E1F00E94700F182F0E94310D101789F4A2
:102180008BEF91E00E94460D802F0E94310D88EF69
:1021900091E00E94460D8AE090E00E94120C81E0DE
:1021A00018C040E050E060E070E04C155D056E0541
:1021B0007F0550F08EEE91E00E94460D84E690E09F
:1021C0000E94120C80E005C04F5F5F4F6F4F7F4F42
:1021D000C5CF1F910F91FF90EF90DF90CF900895A2
:1021E000CF92DF92EF92FF921F93CF93DF93EC0198
:1021F0006A017B018AEE91E00E94460DCE010E94A9
:10220000390D87EE91E00E94460D40E050E060E01D
:1022100070E020919C0430919D0480919A049091EB
:102220009B042817390769F10E94700F182F0E942C
:10223000310D812F0E9407108823F9F08091A304AB
:102240009091A4040297C8F089E19AE0BE010E942F
:102250007D45009791F081EE91E00E94460D89E165
:102260009AE00E94390D8EED91E00E94460D8AE0C1
:1022700090E00E94120C81E018C040E050E060E065
:1022800070E04C155D056E057F0550F084ED91E022
:102290000E94460D84E690E00E94120C80E005C08A
:1022A0004F5F5F4F6F4F7F4FB4CFDF91CF911F9143
:1022B000FF90EF90DF90CF9008958BE491E00E9423
:1022C000460D0E94E30F809188048823A1F188E3E2
:1022D00091E00E94460D469A85E090E00E94120C23
:1022E0008FED93E00E94E80E8FE348EF54E261E047
:1022F00070E00E9496108823E1F4469881E191E015
:102300000E94460D85E090E00E94120C469A85E0FE
:1023100090E00E94120C8FED93E00E94E80E8FE394
:1023200040EB51E76BE070E00E949610882331F19A
:102330004698469816C08EEF90E00E94460D84E0C5
:1023400091E00E94120C89E094E00E94E80E8DE07A
:1023500094E040EE50E762E770E00E94F0108823BE
:1023600069F085E090E00E94120C8FED93E00E94EE
:10237000E80E81E090E00E94120C08950E944D103A
:102380000895CF92DF92EF92FF920F931F93CF9316
:10239000DF93EC0188E492E00E94460DCE010E949A
:1023A000390D85E492E00E94460D0E94E30F42C081
:1023B0008D2D0E94310D8D2D0E94D00E96E9E92EB3
:1023C000F12C012D112DCC2482E00E94050C2091CE
:1023D0009C0430919D0480919A0490919B0428174D
:1023E000390729F00E94700F8D15E9F422C0E1141D
:1023F000F1040105110531F00894E108F108010923
:102400001109E2CF81E08C1570F085E292E00E9424
:10241000460D8D2D0E94D00EC3948AEFE82EF12C2C
:10242000012D112DD1CF8DE192E00E94460D80E06B
:102430000AC02196D880DD2009F0BACF88E092E06A
:102440000E94460D81E0DF91CF911F910F91FF9087
:10245000EF90DF90CF9008950F931F93CF93DF936A
:10246000EC018B018CEC91E00E94460DCE010E94A4
:10247000390D88EC91E00E94460DC8010E94390D8B
:1024800085EC91E00E94460DCE010E94C111181604
:1024900034F082EA91E00E94460D8FEF6CC08FED20
:1024A00093E00E94E80E40E050E060E070E0209190
:1024B0009C0430919D0480919A0490919B0428176C
:1024C000390749F10E94700F0E940710882309F410
:1024D00049C08091A3049091A404029708F442C0DB
:1024E00089E19AE0B8010E947D450097D9F187E91A
:1024F00091E00E94460D89E19AE00E94390D84E93D
:1025000091E00E94460D8AE090E00E94120C109229
:10251000A60481E030C0403980ED580783E06807A9
:1025200080E0780718F18DE891E00E94460DCE0119
:102530000E94390D88E791E00E94460D84E690E004
:102540000E94120C8091A604833040F48F5F809328
:10255000A60485E691E00E94460D84CF1092A60461
:1025600080E009C040E050E060E070E04F5F5F4F06
:102570006F4F7F4F9CCFDF91CF911F910F910895A7
:1025800084EE90E00E94460D8FED93E00E94E80EED
:1025900086E990E00E94120C81E194E066E174E02B
:1025A0000E942C1208950F931F93DF93CF93CDB702
:1025B000DEB761970FB6F894DEBF0FBECDBF462FD2
:1025C0008E010F5F1F4FB80150E00E949745C80170
:1025D0000E94E80E61960FB6F894DEBF0FBECDBF25
:1025E000CF91DF911F910F910895EF92FF920F937A
:1025F0001F93DF93CF93CDB7DEB761970FB6F894F3
:10260000DEBF0FBECDBF262F042F7E010894E11C34
:10261000F11CB701422F50E00E949745F70101904D
:102620000020E9F73197EE19FF09102F1E1B111634
:102630005CF4115080E30E94D00E1123D1F7CE013B
:1026400001960E94E80E06C01195C701602F412F28
:102650000E94030F61960FB6F894DEBF0FBECDBF88
:10266000CF91DF911F910F91FF90EF9008950F93FD
:102670001F93DF93CF93CDB7DEB7A1970FB6F89432
:10268000DEBF0FBECDBF242F8E010F5F1F4FA801ED
:1026900030E00E94B845C8010E94E80EA1960FB62E
:1026A000F894DEBF0FBECDBFCF91DF911F910F9188
:1026B000089581E0089580E00895282F8FEF8EBD62
:1026C0000DB407FEFDCF8DB58F778DBD8EB5822FF2
:1026D00080648EBD0DB407FEFDCF8DB58F778DBDA7
:1026E000872F9927AA27BB278EBD0DB407FEFDCFE4
:1026F0008DB58F778DBDCB01AA27BB278EBD0DB4BD
:1027000007FEFDCF8DB58F778DBDBB27A72F962FE9
:10271000852F8EBD0DB407FEFDCF8DB58F778DBD96
:102720004EBD0DB407FEFDCF8DB58F778DBD222335
:1027300019F0283069F406C085E98EBD0DB407FE96
:10274000FDCF0BC087E88EBD0DB407FEFDCF05C0E1
:102750008FEF8EBD0DB407FEFDCF8DB58F778DBD8C
:1027600090E02FEF2EBD0DB407FEFDCF8DB58F7716
:102770008DBD8EB58F3F19F49F5F9A3099F70895FC
:102780008F929F92AF92BF92CF92DF92EF92FF9281
:102790000F931F93CF93DF93EC01009781F08DE1AE
:1027A000FE0111928A95E9F728988AE040E050E00E
:1027B00060E070E00E945D13882319F0289A80E0A1
:1027C00021C19FEF9EBD0DB407FEFDCF8DB58F7764
:1027D0008DBD8EB58E3FB1F71C2FCE01FC0160E69A
:1027E00070E00FEF9E2F911B0EBD0DB407FEFDCFC5
:1027F0008DB58F778DBD2EB5983028F4933088F441
:10280000992359F00CC09D3018F4993070F40BC026
:102810009D3019F19E3069F524C028832AC0208399
:1028200028C0218326C02A8724C030E040E050E041
:10283000062E04C0220F331F441F551F0A94D2F7DF
:102840008B859C85AD85BE85822B932BA42BB52BC8
:102850008B879C87AD87BE870CC02295207F2F87F2
:1028600008C0922F92959F708F85892B8F872F702C
:10287000288B3196685070408FEF603D780709F0E3
:10288000B1CF89E040E050E060E070E00E945D136D
:10289000882309F093CF9FEF9EBD0DB407FEFDCFB7
:1028A0008DB58F778DBD8EB58E3FB1F78091B30614
:1028B000C82EDD24E2E0CE22DD249924BB24EE24C0
:1028C000FF2410E088248A94AA24A3948EBC0DB41B
:1028D00007FEFDCF8DB58F778DBD2EB51E3081F4EF
:1028E000822F90E026FDA98E85FDAA8E84FDAB8EF9
:1028F0008C70907095958795959587958C8F7CC0F9
:10290000C114D10439F1173029F0173050F01A30C2
:1029100040F401C02F739E2D8827E22EFF24E82A61
:10292000F92A193009F068C00894E11CF11C9701DC
:1029300040E050E060E070E080E090E003E10E9461
:10294000F142298B3A8B4B8B5C8B6D8B7E8B8F8B03
:10295000988F52C01730D9F0183030F4153061F02C
:10296000163009F049C00CC0193031F11930C0F0EF
:102970001A3009F041C025C07FE0972E92223CC05A
:10298000822F90E083709070F82EEE2435C0822F55
:1029900090E0E82AF92AEE0CFF1CEE0CFF1C2CC07C
:1029A0002295269526952370822F90E0E82AF92A11
:1029B0000894E11CF11C20C043E0B42EB222BB0CF1
:1029C0001BC0221F2227221FB22A970140E050E09D
:1029D000E92DF0E03296EB0DF11D04C0220F331FFC
:1029E000441F551FEA95D2F7298B3A8B4B8B5C8B92
:1029F0001D8A1E8A1F8A188E1F5F123109F066CF4A
:102A0000289A81E0DF91CF911F910F91FF90EF9075
:102A1000DF90CF90BF90AF909F908F9008952F92AE
:102A20003F924F925F926F927F928F929F92AF925E
:102A3000BF92CF92DF92EF92FF920F931F93DF939B
:102A4000CF93CDB7DEB72C970FB6F894DEBF0FBE8D
:102A5000CDBF39014A015B016C011A830983FC82F5
:102A6000EB8290C1BFEF4B2EB1E05B2E462057208A
:102A70009201A62DA419AA87E1E06A1608F0E0E009
:102A8000872D831B21E0781608F020E0B82FBE1BAD
:102A9000BD8391E08B1708F090E0292BE82DE21B15
:102AA000EE8331E08E1608F030E0F92DF31BFF8342
:102AB00061E09F1608F060E02A2D261B288771E050
:102AC000A21608F070E02B2C271A91E0B21408F03F
:102AD00090E03C2C391A91E0C31408F090E03D2DB1
:102AE000391B398780E092E0841995099C878B8790
:102AF000AB81BC81A817B90710F4BC87AB87809164
:102B0000AA06BA858B1709F58091AB06ED818E1761
:102B1000E1F48091AC06FE818F17B9F48091AD0687
:102B20002F81821791F48091AE063885831769F45E
:102B30008091AF06821549F48091B006831529F47F
:102B40008091B10699858917A9F10E94E31688231F
:102B500009F41FC14114510429F4AB85BC85A05070
:102B6000B24090F42A853D814E815F816885722D47
:102B7000832D99850AEA14E0E12CA2E0FA2E0E9446
:102B80000E17882309F405C1FA85F093AA062D8152
:102B90002093AB063E813093AC068F818093AD06C7
:102BA00098859093AE062092AF063092B006A98524
:102BB000A093B106E981FA81EA5AF440A1F09201AA
:102BC00026553B4FC90169817A814B855C850E94FE
:102BD00031451092B2068B819C81AB85BC858A17EA
:102BE0009B0709F4D4C028988091B30682FF0FC0D8
:102BF0002A853D814E815F816885722D832D99855F
:102C000009E00E947242BA01A9019B0105C08A85B0
:102C10009D812E813F81AC0188E1B9010E945D1345
:102C2000882311F0289AB5C0BEEFBEBD0DB407FED3
:102C3000FDCF8DB58F778DBDEAEAF4E081918EBD31
:102C40000DB407FEFDCF8DB58F778DBD26E0EA3A36
:102C5000F207A1F73FEF3EBD0DB407FEFDCF8DB5E6
:102C60008F778DBD8FEF8EBD0DB407FEFDCF8DB577
:102C70008F778DBD9FEF9EBD0DB407FEFDCF8DB547
:102C80008F778DBD8EB58F3FA9F78EBD0DB407FE32
:102C9000FDCF8DB58F778DBD8EB5289AA981BA816C
:102CA000EB85FC85AE0FBF1FBA83A9839F0140E06F
:102CB00050E060E070E080E090E0462C4E0EF1E0E5
:102CC000461408F0F0E0E72DE30FA1E0E71508F067
:102CD000A0E05F2E5E0EF1E05E1608F0F0E0AF2B94
:102CE000E82DE40FB1E0E81508F0B0E0EA2EEE0EB2
:102CF000F1E0EE1608F0F0E0BF2BE92DE50FA1E0C2
:102D0000E91508F0A0E0FB2EFE0EF1E0FE1608F03B
:102D1000F0E0AF2BEA2DE60FB1E0EA1508F0B0E0E5
:102D20000A2F0E0FF1E00E1708F0F0E0BF2BEB2D8D
:102D3000E70FA1E0EB1508F0A0E01B2F1E0FF1E05C
:102D40001E1708F0F0E0AF2BEC2DE80FB1E0EC150A
:102D500008F0B0E0AE0FF1E0AE1708F0F0E0BF2BE6
:102D60008D2D890F3201470158016D01D80E2B813D
:102D70003C818B859C85281B390B3C832B8391E000
:102D80009093B206AB81BC81AB2B09F06BCE81E096
:102D900001C080E02C960FB6F894DEBF0FBECDBF09
:102DA000CF91DF911F910F91FF90EF90DF90CF9027
:102DB000BF90AF909F908F907F906F905F904F905B
:102DC0003F902F900895EF92FF920F931F93809161
:102DD000B206882311F081E01CC02091AA06309130
:102DE000AB064091AC065091AD066091AE06709175
:102DF000AF068091B0069091B1060AEA14E0E12C8A
:102E0000E2E0FE2E0E940F15882319F081E08093E6
:102E1000B2061F910F91FF90EF9008952F923F926D
:102E20004F925F926F927F928F929F92AF92BF92DA
:102E3000CF92DF92EF92FF920F931F93DF93CF9386
:102E4000CDB7DEB729970FB6F894DEBF0FBECDBF62
:102E500039014A015B016C012801FA82E9826BC1E8
:102E6000FFEFEF2EF1E0FF2EE620F7209701A62DD1
:102E7000AE19AF83E1E06A1608F0E0E0872D831B0E
:102E800021E0781608F020E0B82FBE1BBB8391E04C
:102E90008B1708F090E0292B382C321A31E083147C
:102EA00008F030E0192D131B61E0911608F060E086
:102EB000EA2DE61BEC8371E0AE1608F070E0FB2D06
:102EC000F71BFD8391E0BF1608F090E02C2C291A27
:102ED00091E0C21408F090E02D2D291B2E8380E094
:102EE00092E08E199F0999878887A981BA81A817CE
:102EF000B90710F4B987A8878091AA06BF818B17FC
:102F000009F58091AB06EB818E17E1F48091AC0658
:102F10008315C1F48091AD068117A1F48091AE06AE
:102F2000FC818F1779F48091AF062D81821751F4BF
:102F30008091B006821531F48091B1063E818317ED
:102F400009F483C00E94E316882309F4FAC0289884
:102F50008091B30682FF0FC02F813B81432D512FFB
:102F60006C817D81822D9E8109E00E947242BA01AE
:102F7000A9019B0105C08F819B81232D312FAC01BD
:102F800081E1B9010E945D13882319F0289A80E03D
:102F9000D8C08FEF8EBD0DB407FEFDCF8DB58F77F6
:102FA0008DBD8EB58E3FA9F7EAEAF4E09FEF9EBD96
:102FB0000DB407FEFDCF8DB58F778DBD8EB58083A7
:102FC000A6E0E93AFA0711F03196F0CFBF81B0934D
:102FD000AA06EB81E093AB063092AC061093AD06E7
:102FE000FC81F093AE062D812093AF062092B006AF
:102FF0003E813093B106970126553B4FC201B9017E
:10300000488559850E9431458FEF8EBD0DB407FE6E
:10301000FDCF8DB58F778DBD8EB59FEF9EBD0DB465
:1030200007FEFDCF8DB58F778DBD8EB5289AAFEF9A
:10303000AEBD0DB407FEFDCFE885F9854E0E5F1ECF
:103040008DB58F778DBD8EB50DC0970126553B4F41
:10305000C201B901488559850E94314528853985C5
:10306000420E531E89819A81A885B9858A1B9B0BC4
:103070009A838983AD0160E070E080E090E0A0E099
:10308000B0E0262C240E31E0261408F030E0272D85
:10309000250FE1E0271508F0E0E0332E320E31E095
:1030A000321608F030E0E32B282D260FF1E028152A
:1030B00008F0F0E0EE2EE20E31E0E21608F030E02B
:1030C000F32B292D270FE1E0291508F0E0E0FF2E72
:1030D000F20E31E0F21608F030E0E32B2A2D280F33
:1030E000F1E02A1508F0F0E00E2F020F31E0021790
:1030F00008F030E0F32B2B2D290FE1E02B1508F021
:10310000E0E01F2F120F31E0121708F030E0E32B40
:103110002C2D2A0FF1E02C1508F0F0E0E20F31E041
:10312000E21708F030E0F32B8D2D8B0F31014701B2
:1031300058016F01D80EE981FA81EF2B09F090CE8A
:1031400081E029960FB6F894DEBF0FBECDBFCF91B8
:10315000DF911F910F91FF90EF90DF90CF90BF9084
:10316000AF909F908F907F906F905F904F903F9027
:103170002F9008952F923F924F925F926F927F927D
:103180008F929F92AF92BF92CF92DF92EF92FF9277
:103190000F931F93DF93CF93CDB7DEB760970FB632
:1031A000F894DEBF0FBECDBF522E432E4B835C83FF
:1031B0006D837E838F839887180137019A82898275
:1031C0000115110509F488C0E114F10409F484C063
:1031D000CE14DF0408F480C0A114B10409F47CC04B
:1031E000882499248E189F08CE18DF08970140E0A4
:1031F00050E060E070E080E090E0E9863A874B873D
:103200005C876D877E878F87988B252D342D4B812A
:103210005C816D817E818F819885810173010E941F
:103220000E17882309F458C0C101052D142D2B81D8
:103230003C814D815E816F817885E980FA80F5015E
:103240001995882309F44AC0C80CD91CC601860DFB
:10325000971D8615970508F441C03985350D91E015
:10326000351508F090E08A85840D21E0841508F07A
:1032700020E0192F180F91E0181708F090E0922B1A
:103280004B81940F81E0941708F080E06C81680F07
:1032900081E05C81651708F080E05D81580F81E076
:1032A0007D81571708F080E04E81480F81E02E8124
:1032B000421708F080E07F81870F21E0871708F030
:1032C00020E0532E412E9B836C835D834E838F833E
:1032D0008885820F888799CF80E001C081E0609661
:1032E0000FB6F894DEBF0FBECDBFCF91DF911F9117
:1032F0000F91FF90EF90DF90CF90BF90AF909F9095
:103300008F907F906F905F904F903F902F90089597
:103310008F929F92BF92CF92DF92EF92FF920F9384
:103320001F93CF93DF93229A219A209A2398289A69
:1033300083E58CBD8DB58E7F8DBD1092B30690E078
:103340002FEF2EBD0DB407FEFDCF8DB58F778DBD50
:103350008EB59F5F9A30A9F7289800E010E080E0D2
:1033600040E050E060E070E00E945D13F82E81E0E4
:10337000F81641F081E00F3F180709F4C3C00F5F52
:103380001F4FEDCF88E04AEA51E060E070E00E9414
:103390005D1382FD2DC08FEF8EBD0DB407FEFDCFF6
:1033A0008DB58F778DBD8EB58FEF8EBD0DB407FEB9
:1033B000FDCF8DB58F778DBD8EB58FEF8EBD0DB4E2
:1033C00007FEFDCF8DB58F778DBD0EB400FECAC050
:1033D0008FEF8EBD0DB407FEFDCF8DB58F778DBD00
:1033E0008EB58A3A09F0BEC082E08093B30612C05F
:1033F00087E340E050E060E070E00E945D1389E206
:1034000040E050E060E070E00E945D1382FD02C089
:10341000F092B306B090B3068B2D90E003E0802EBF
:10342000912C8822992212E0C12ED12CC822D922B7
:10343000C0E0D0E081149104B9F0C114D10431F09E
:10344000E12CF12C012DB0E41B2F03C0EE24FF244E
:10345000870187E340E050E060E070E00E945D1388
:1034600089E2B801A70105C081E040E050E060E0DA
:1034700070E00E945D1380FF07C08FE7CF3FD80741
:1034800009F440C02196D6CFCD2899F18AE340E0D7
:1034900050E060E070E00E945D13882399F58FEFA3
:1034A0008EBD0DB407FEFDCF8DB58F778DBD0EB4EB
:1034B00006FE04C084E0B82AB092B3068FEF8EBD3A
:1034C0000DB407FEFDCF8DB58F778DBD8EB58FEF17
:1034D0008EBD0DB407FEFDCF8DB58F778DBD8EB53A
:1034E0008FEF8EBD0DB407FEFDCF8DB58F778DBDEF
:1034F0008EB580E140E052E060E070E00E945D1334
:10350000882311F0289A2EC0289A8CB58C7F8CBD08
:103510008DB581608DBD8FEF8093AA068093AB0639
:103520008093AC068093AD068093AE068093AF0681
:103530008093B0068093B10681E08093B20620E0CC
:1035400030E040E050E060E070E080E090E00AEAC7
:1035500014E0E12CA2E0FA2E0E940E17882319F045
:1035600081E001C080E0DF91CF911F910F91FF902A
:10357000EF90DF90CF90BF909F908F9008952F9203
:103580003F924F925F926F927F928F929F92AF92F3
:10359000BF92CF92DF92EF92FF920F931F93DF9330
:1035A000CF93CDB7DEB728970FB6F894DEBF0FBE26
:1035B000CDBF922E832E542E452E362E272E8D8350
:1035C0009E833801F886EF82DA82C982BC82AB82A0
:1035D0000115110509F47EC0CD2809F47BC0BB2478
:1035E000EF2809F06EC0BB24B3946BC0C301092D52
:1035F000182D252D342D432D522D6D817E81EB808C
:10360000FC80A981BA81FD0119956C01009709F42C
:1036100063C0BB2031F4EF81F885E817F90708F49F
:1036200059C0292D382D452D542D632D722D8D8196
:103630009E81830176010E940F15882309F44AC0F8
:103640009601F92DFC0DE1E0F91508F0E0E0882D78
:10365000830F21E0881508F020E01E2F180F91E05D
:10366000181708F090E0922B950D81E0951508F061
:1036700080E0682F640D81E0641508F080E0582F29
:10368000530D81E0531508F080E0482F420D81E092
:10369000421508F080E02D81820F21E03D818317E3
:1036A00008F020E09F2E812E592E462E1A018D8380
:1036B0008E81820F8E83AF81B885AC19BD09B88722
:1036C000AF83BB2009F092CFEF81F885EF2B09F093
:1036D0008DCF02C080E001C081E028960FB6F8943B
:1036E000DEBF0FBECDBFCF91DF911F910F91FF9035
:1036F000EF90DF90CF90BF90AF909F908F907F9092
:103700006F905F904F903F902F900895FC0100972D
:1037100011F01182108208952F923F924F925F9282
:103720006F927F928F929F92AF92BF92CF92DF92D1
:10373000EF92FF920F931F93DF93CF93CDB7DEB736
:1037400028970FB6F894DEBF0FBECDBFFC010097DF
:1037500009F440C1423051056105710508F43AC1D0
:1037600080809180D40118968C915A016B016284FB
:103770005384448435842684B785BF839089988791
:1037800071888B3009F093C09A01A60160E070E067
:1037900080E090E002E00E94F142E32FF42FA52F99
:1037A000B62F172F082FE92EF22EF60C31E0F21665
:1037B00008F030E02E2F250D41E02E1708F040E0F4
:1037C000320FE1E0321708F0E0E04E2B2F2F240DEE
:1037D00051E02F1708F050E0420FE1E0421708F0E7
:1037E000E0E05E2B2A2F230D61E02A1708F060E04D
:1037F000520FE1E0521708F0E0E06E2B2B2F220D64
:1038000071E02B1708F070E0620FE1E0621708F03A
:10381000E0E07E2B2F81210F81E0211708F080E06E
:10382000720FE1E0721708F0E0E08E2B2885200F80
:1038300091E0201708F090E0820FE1E0821708F095
:10384000E0E09E2B7E0CD401ED91FC912F2D970D85
:103850008E010D5F1F4FB4E0EB2EF12C19958823DC
:1038600009F4B8C02B813C814D815E812115310561
:103870004105510509F4B2C0273FBFEF3B07BFEF39
:103880004B07BFE05B0709F4A5C0DA01C901805FFF
:103890009F4FAF4FBF400797A105B10508F49AC0ED
:1038A000DA01C901885F9F4FAF4FBF408FC09A01B7
:1038B000A60160E070E080E090E001E00E94F1424B
:1038C000E32FF42FA52FB62F172F082FE92EF22E56
:1038D000F60C31E0F21608F030E02E2F250D41E015
:1038E0002E1708F040E0320FE1E0321708F0E0E078
:1038F0004E2B2F2F240D51E02F1708F050E0420FD0
:10390000E1E0421708F0E0E05E2B2A2F230D61E092
:103910002A1708F060E0520FE1E0521708F0E0E0EB
:103920006E2B2B2F220D71E02B1708F070E0620F29
:10393000E1E0621708F0E0E07E2B2F81210F81E0AB
:10394000211708F080E0720FE1E0721708F0E0E064
:103950008E2B2885200F91E0201708F090E0820F31
:10396000E1E0821708F0E0E09E2B7E0CD401ED919F
:10397000FC912F2D970D8E010F5F1F4FA2E0EA2EB5
:10398000F12C1995882331F189819A819C0140E0BD
:1039900050E0211531054105510501F1273FBFEFE9
:1039A0003B07B0E04B07B0E05B07A1F0DA01C901CB
:1039B000805F9F4FA040B0400797A105B10550F030
:1039C000DA01C901885F9F4FA040B0400897A10568
:1039D000B10520F420E030E040E050E0B901CA0138
:1039E00028960FB6F894DEBF0FBECDBFCF91DF9102
:1039F0001F910F91FF90EF90DF90CF90BF90AF900D
:103A00009F908F907F906F905F904F903F902F90FE
:103A100008952F923F924F925F926F927F928F9272
:103A20009F92AF92BF92CF92DF92EF92FF920F934D
:103A30001F93DF93CF93CDB7DEB764970FB6F8949B
:103A4000DEBF0FBECDBF2C013A014B01009709F438
:103A5000A9C1423051056105710508F4A3C1D20125
:103A60001A96BC91BC87F201F385FD87D2011C96A2
:103A7000BC91BE87F201F585FF87D2011E96BC91ED
:103A8000B88BF201F785F98BD2015096BC91BA8BB5
:103A9000F201F189FB8BD201ED91FC9180858B3095
:103AA00009F0D6C0640153019301A60160E070E003
:103AB00080E090E002E00E94F142E32FF42FB52F66
:103AC000162F072FF82EA92F8C85820F8C8B31E0B3
:103AD000821708F030E02D852E0F41E02E1708F0F8
:103AE00040E0320F3F8331E09F81921708F030E0D1
:103AF000432B2E852F0F51E02F1708F050E0420F77
:103B0000488731E0421708F030E0532B2F852B0F08
:103B100061E02B1708F060E0520F598731E052172F
:103B200008F030E0632B2889210F71E0211708F09D
:103B300070E0620F6A8731E0621708F030E0732BA3
:103B40002989200F81E0201708F080E0720F7B8721
:103B500031E0721708F030E0832B2A892F0D31E015
:103B60002F1508F030E0282E220E91E0221608F0E2
:103B700090E0332E392ABB89AB0F3A0ED201ED917A
:103B8000FC910190F081E02D2C893F814885598579
:103B90006A857B85C1018E010D5F1F4FB4E0EB2E5E
:103BA000F12C1995882309F4FDC0AB80BC80CD8031
:103BB000DE80A114B104C104D10409F4F5C0D6011A
:103BC000C501805F9F4FAF4FBF400897A105B1056A
:103BD00008F4E8C0D601C501885F9F4FAF4FBF40D2
:103BE0000897A105B10518F4AA24BB246501F201C8
:103BF00086A597A5A0A9B1A90097A105B10539F49B
:103C0000D2019E966D927D928D929C92D1971B824D
:103C10001C821D821E82D201ED91FC910480F581EF
:103C2000E02D2C893F81488559856A857B85C101B6
:103C30008E010D5F1F4FA4E0EA2EF12C199535017E
:103C40004601A114B104C104D10409F02BCFACC0CA
:103C5000640153019301A60160E070E080E090E010
:103C600001E00E94F142E32FF42FB52F162F072F0A
:103C7000F82EA92F2C84220E31E0221608F030E015
:103C80002D852E0F41E02E1708F040E0332E320E26
:103C900031E0321608F030E0432B2E852F0F51E033
:103CA0002F1708F050E0642E620E31E0621608F023
:103CB00030E0532B2F852B0F61E02B1708F060E0CD
:103CC000752E720E31E0721608F030E0632B2889F1
:103CD000210F71E0211708F070E0862E820E31E08E
:103CE000821608F030E0732B2989200F81E020171D
:103CF00008F080E0972E920E31E0921608F030E046
:103D0000832B2A892F0D31E02F1508F030E0A82EE3
:103D1000A20E91E0A21608F090E0B32EB92ABB895A
:103D2000AB0FBA0ED201ED91FC910190F081E02D24
:103D30009101A301B401C5018E010F5F1F4FB2E0D5
:103D4000EB2EF12C1995882369F1C980DA80C11412
:103D5000D10451F1C6014096089720F1B8EFCB1677
:103D6000BFEFDB0610F0CC24DD241A821982D201C9
:103D7000ED91FC910480F581E02D9101A301B40146
:103D8000C5018E010F5F1F4FA2E0EA2EF12C19959D
:103D9000360188249924611471048104910409F086
:103DA00057CF02C080E001C081E064960FB6F8945E
:103DB000DEBF0FBECDBFCF91DF911F910F91FF905E
:103DC000EF90DF90CF90BF90AF909F908F907F90BB
:103DD0006F905F904F903F902F9008952F923F9259
:103DE0004F925F926F927F928F929F92AF92BF920B
:103DF000CF92DF92EF92FF920F931F93DF93CF93B7
:103E0000CDB7DEB7AD970FB6F894DEBF0FBECDBF0E
:103E1000998F888F4A8F5B8F6C8F7D8FB901009748
:103E200009F41BC3DC01ED91FC91119720813181D4
:103E30003F8B2E8B448155815D8B4C8B1A965C9108
:103E40001A975CA31B968C911B978DA31C969C9133
:103E50001C979EA31D96AC91AFA3A88DB98D1E96FD
:103E6000BC91B8A7A88DB98D1F96BC91B9A7A88D94
:103E7000B98D5096BC91BAA7A88DB98D5196BC91B9
:103E8000BBA7A88DB98D9E962D903D904D905C90CE
:103E9000D1971B8680858B3011F4B1E0BB87E88D0C
:103EA000F98D82899389A489B589FB85FF2351F017
:103EB0009C01AD0182E056954795379527958A95E7
:103EC000D1F706C09C01AD015695479537952795CA
:103ED0002C873D874E875F87A88DB98D9E961D9252
:103EE0001D921D921C92D197C801DB01888B998B82
:103EF000AA8BBB8B2C853D854E855F852F833887AC
:103F000049875A876624772443019DC132E02316EE
:103F100031044104510448F08C859D85AE85BF85F0
:103F2000281639064A065B0628F0A2E02A2E312C14
:103F3000412C512C620151019B85992309F47FC0CA
:103F40009101A60160E070E080E090E002E00E9454
:103F5000F142E32FF42FB52F162F072FF82EA92F9C
:103F60003CA1320F3CA731E04CA5421708F030E0ED
:103F70002DA12E0F41E02E1708F040E0320F3E8FAA
:103F800031E05E8D521708F030E0432B2EA12F0F49
:103F900051E02F1708F050E0420F4F8F31E04217E9
:103FA00008F030E0532B2FA12B0F61E02B1708F006
:103FB00060E0520F58A331E0521708F030E0632B55
:103FC00028A5210F71E0211708F070E0A62EA20E9F
:103FD00031E0A21608F030E0732B29A5200F81E014
:103FE000201708F080E0B72EB20E31E0B21608F0CC
:103FF00030E0832B2AA52F0D31E02F1508F030E09B
:10400000C82EC20E91E0C21608F090E0D32ED92A35
:104010008BA5A80FDA0E2CA53E8D4F8D58A1B501AA
:10402000C6018E010D5F1F4FF4E0EF2EF12CAE891B
:10403000BF89FD011995882309F085C00EC2910141
:10404000A60160E070E080E090E001E00E94F142B3
:10405000E32FF42FB52F162F072FF82EA92F3CA1F1
:10406000320F3DA731E04DA5421708F030E02DA1F9
:104070002E0F41E02E1708F040E0320F39A331E057
:1040800059A1521708F030E0432B2EA12F0F51E019
:104090002F1708F050E0420F4AA331E0421708F012
:1040A00030E0532B2FA12B0F61E02B1708F060E0BD
:1040B000520F5BA331E0521708F030E0632B28A5C4
:1040C000210F71E0211708F070E0A62EA20E31E05A
:1040D000A21608F030E0732B29A5200F81E02017ED
:1040E00008F080E0B72EB20E31E0B21608F030E0F2
:1040F000832B2AA52F0D31E02F1508F030E0C82EB4
:10410000C20E91E0C21608F090E0D32ED92A8BA5FA
:10411000A80FDA0E2DA539A14AA15BA1B501C601F0
:104120008E010F5F1F4FE2E0EE2EF12CAE89BF89AA
:10413000FD011995882309F490C189819A81892B01
:1041400009F071C031C08B819C81AD81BE81009727
:10415000A105B10509F067C0288939894A895B89B9
:10416000211531054105510541F1611471048104A6
:10417000910449F42FEF3FEF4FEF5FE02B833C8337
:104180004D835E8304C06B827C828D829E822CA5CF
:104190003E8D4F8D58A1B501C6018E010D5F1F4F99
:1041A000B4E0EB2EF12C2AC0288939894A895B8931
:1041B000211531054105510549F4A88DB98D9E960B
:1041C0002D923D924D925C92D19750C06114710432
:1041D0008104910429F4EFEFFFEFFA83E98302C031
:1041E0007A8269822DA539A14AA15BA1B501C601D8
:1041F0008E010F5F1F4FA2E0EA2EF12CAC89BD8922
:10420000FD011995882309F422C1288939894A8931
:104210005B892150304040405040288B398B4A8B7D
:104220005B8B420131018F819885A985BA85019701
:10423000A109B1098F839887A987BA870894211C9F
:10424000311C411C511C2F81388549855A85211507
:1042500031054105510509F059CE88899989AA8906
:10426000BB890097A105B10509F0F1C02A8D3B8DEE
:104270004C8D5D8D223031054105510508F4F0C0AB
:1042800059016A013B85332309F470C06B827C823B
:104290008D829E829501A60160E070E080E090E052
:1042A00002E00E94F142E32FF42FA52FB62F172F23
:1042B000082FE92EFCA0F20E31E0F21608F030E0F3
:1042C0002DA12E0F41E02E1708F040E0320FE1E063
:1042D000321708F0E0E04E2B2EA12F0F51E02F17E0
:1042E00008F050E0420FE1E0421708F0E0E05E2BFA
:1042F0002FA12A0F61E02A1708F060E0520FE1E0D9
:10430000521708F0E0E06E2B28A52B0F71E02B1759
:1043100008F070E0620FE1E0621708F0E0E07E2B49
:1043200029A5210F81E0211708F080E0720FE1E05C
:10433000721708F0E0E08E2B2AA5200F91E02017DD
:1043400008F090E0820FE1E0821708F0E0E09E2B99
:10435000ABA5AE0D2F2D9A0F8E010D5F1F4FF4E010
:10436000EF2EF12CEC89FD8919956FC0C30169828C
:104370009A839501A60160E070E080E090E001E0A2
:104380000E94F142E32FF42FA52FB62F172F082FED
:10439000E92EFCA0F20E31E0F21608F030E02DA17B
:1043A0002E0F41E02E1708F040E0320FE1E0321707
:1043B00008F0E0E04E2B2EA12F0F51E02F1708F050
:1043C00050E0420FE1E0421708F0E0E05E2B2FA141
:1043D0002A0F61E02A1708F060E0520FE1E052175F
:1043E00008F0E0E06E2B28A52B0F71E02B1708F0EA
:1043F00070E0620FE1E0621708F0E0E07E2B29A593
:10440000210F81E0211708F080E0720FE1E07217C0
:1044100008F0E0E08E2B2AA5200F91E0201708F08D
:1044200090E0820FE1E0821708F0E0E09E2BFBA510
:10443000FE0D2F2D9F0F8E010F5F1F4FE2E0EE2E1E
:10444000F12CAC89BD89FD011995882349F4888D2B
:10445000998DB401A3010E94091D662477244301AC
:10446000B301C401AD960FB6F894DEBF0FBECDBF49
:10447000CF91DF911F910F91FF90EF90DF90CF9040
:10448000BF90AF909F908F907F906F905F904F9074
:104490003F902F90089580E190E00895FC010097EF
:1044A00011F01182108208952F923F924F925F92E5
:1044B0006F927F928F929F92AF92BF92CF92DF9234
:1044C000EF92FF920F931F93DF93CF93CDB7DEB799
:1044D00068970FB6F894DEBF0FBECDBF988F8F8B55
:1044E0007E876D87588B4F87009709F41EC3672B13
:1044F00009F41BC34115510509F417C3DC01D39618
:10450000AC90D397D496BC90D497D596CC90D597B1
:10451000D696DC90D697D796EC90D797D896FC9005
:10452000D897D9960C91D997DA961C91DA979796E5
:104530002D903D904D905C909A979A0140E050E00C
:1045400060E070E080E090E0B22FBA0DBA8BF1E04D
:10455000B21708F0F0E0E32FEB0D99249394E317E2
:1045600008F09924FE0FF98BF1E0A989AE1708F045
:10457000F0E09F2AE42FEC0DB1E0E41708F0B0E082
:10458000692C6E0EF1E06E1608F0F0E0BF2BE52FFF
:10459000ED0DA1E0E51708F0A0E07B2E7E0EF1E026
:1045A0007E1608F0F0E0AF2BE62FEE0DB1E0E61737
:1045B00008F0B0E08A2E8E0EF1E08E1608F0F0E0E2
:1045C000BF2BE72FEF0DA1E0E71708F0A0E09B2E2F
:1045D0009E0EF1E09E1608F0F0E0AF2BE82FE00F02
:1045E000B1E0E81708F0B0E0AE0FF1E0AE1708F068
:1045F000F0E0EB2FEF2B892F810FE80FA201910143
:1046000060E070E080E090E09E17F0F0E91721F59F
:104610008A17D0F0A81701F57915B0F09716E1F4D4
:10462000681590F08616C1F4571570F07516A1F450
:10463000461550F0641681F4B9893B1728F0B3177A
:1046400059F4EA892E1640F491012A193B09388B56
:104650002F87232B09F46CC2AF89B88DED91FC91A3
:104660001197208D318D3C872B87DB968D919D9105
:104670000D90BC91A02D8F839887A987BA8700974A
:10468000A105B10509F059C0AF89B88D93962D9158
:104690003D914D915C9196972F83388749875A8732
:1046A000211531054105510559F48A2D8B298C2995
:1046B0008D298E298F29802B812B09F439C235C28F
:1046C0008A2D8B298C298D298E298F29802B812B4E
:1046D000A1F135014601EB85FC851F0144245524D9
:1046E00022273327A90122193309440955092B8BA5
:1046F0003C8B4D8B5E8B1CC0AF89B88D8D919C918E
:104700004F81588569857A850E948C1B6F837887D5
:1047100089879A87611571058105910509F405C29C
:104720002B893C894D895E89620E731E841E951EFD
:104730006214730484049504F8F64B855C8541503B
:1047400050405C874B874A215B215C834B838B8580
:104750009C8501969C878B87AF85B889BE83AD8386
:10476000EF89F88D0190F081E02DFA83E98330978D
:1047700009F48EC02F81388549855A85223031054C
:104780004105510508F484C022503040404050405B
:1047900059016A012E5F3F4F4F4F5F4F2F8338877C
:1047A00049875A87208C318C9501A60160E070E022
:1047B00080E090E05101CC24DD24EE24FF2400E0D1
:1047C00010E00E947741E981FA81A28DF38CB48DCB
:1047D000058DE68CD78CC0A011A1A20FF1E0A21725
:1047E00008F0F0E0232F2F0DE1E0231708F0E0E0C0
:1047F000FF2EF20E31E0F21608F030E0E32B242F0A
:104800002B0FF1E0241708F0F0E0BE2FB20F31E0DB
:10481000B21708F030E0F32B252F200F41E02517C9
:1048200008F040E0F20F31E0F21708F030E0432BDF
:10483000262F2E0D51E0261708F050E0E42FE20F4E
:1048400031E0E21708F030E0532B272F2D0D41E027
:10485000271708F040E0520F31E0521708F030E01F
:10486000432B282F2C0D31E0281708F030E0420FA1
:1048700081E0421708F080E0732E782A190F2A2F62
:104880009F2D6B2F7F2FAE2FB52F342E710E08C0AA
:1048900020E090E060E070E0A0E0B0E03324772416
:1048A0008B849C844B815C81841A950AED81FE8106
:1048B000E815F90508F44F01E981FA81408051803B
:1048C0004B815C815A01CC24DD24EE24FF24870136
:1048D000622E640E31E0621608F030E0892F8B0DF5
:1048E00041E0891708F040E0380F91E0381708F0F0
:1048F00090E0492B862F8C0D51E0861708F050E090
:10490000480F91E0481708F090E0592B872F8D0D44
:1049100061E0871708F060E0580F91E0581708F041
:1049200090E0692B8A2F8E0D71E08A1708F070E0F5
:10493000680F91E0681708F090E0792B9B2F9F0D8E
:1049400081E09B1708F080E0790FA1E0791708F06B
:10495000A0E08A2BA32DA00F91E0A31508F090E012
:104960008A0FB1E08A1708F0B0E09B2B710ED201DC
:10497000ED91FC91262D970D0D851E8574011995DD
:10498000882309F4AFC02D813E81281939093E835F
:104990002D83940140E050E060E070E080E090E022
:1049A000AF89B88DD3961C91D397D496DC90D497C9
:1049B000D596BC91EF89F88D06A9E7A8A0AC71AC9B
:1049C000F2AC180DF1E0181508F0F0E0ED2DE30F52
:1049D000A1E0E31708F0A0E0BF2EBE0EF1E0BE1686
:1049E00008F0F0E0AF2BE42FEB0FB1E0E41708F094
:1049F000B0E0CA2ECE0EF1E0CE1608F0F0E0BF2BEC
:104A0000E52FE00FA1E0E51708F0A0E0DB2EDE0EB9
:104A1000F1E0DE1608F0F0E0AF2BE62FEE0DB1E08E
:104A2000E61708F0B0E0EA2EEE0EF1E0EE1608F020
:104A3000F0E0BF2BE72FEA0DA1E0E71708F0A0E0B8
:104A40000B2F0E0FF1E00E1708F0F0E0AF2BE82F60
:104A5000E70DF1E0E81708F0F0E0AA2EAE0EA1E0B5
:104A6000AE1608F0A0E0FA2BF90EFF0DAF89B88D55
:104A7000D3961C93D397D496BC92D497D596CC92C8
:104A8000D597D696DC92D697D796EC92D797D896AC
:104A90000C93D897D996AC92D997DA96FC93DA977B
:104AA0008B819C81880D991DEB85FC858E179F0756
:104AB00010F18D919C914F81588569857A850E946E
:104AC0008C1B6F83788789879A87611571058105AB
:104AD000910579F4AF89B88DDB961D921D921D92D8
:104AE0001C92DE974F855889ED81FE814E1B5F0B2E
:104AF00021C01C821B822F81388549855A85AF8948
:104B0000B88DDB962D933D934D935C93DE97ED81AD
:104B1000FE81EF2B39F02D853E85280D391D3E870E
:104B20002D871ECE4F85588905C04FEF5FEF02C01D
:104B300040E050E0CA0168960FB6F894DEBF0FBEA1
:104B4000CDBFCF91DF911F910F91FF90EF90DF903C
:104B5000CF90BF90AF909F908F907F906F905F901D
:104B60004F903F902F900895FC01009711F0118213
:104B700010820895FC01009711F480E0089583A14C
:104B800094A1A5A1B6A183AB94ABA5ABB6AB10AE77
:104B900017AA81E008952F923F924F925F926F92F1
:104BA0007F928F929F92AF92BF92CF92DF92EF92BD
:104BB000FF920F931F93DF93CF93CDB7DEB72C9760
:104BC0000FB6F894DEBF0FBECDBF3C016B0100975E
:104BD00009F49CC06115710509F498C0DB01999630
:104BE000BC9099979A96AC909A979B969C909B971D
:104BF0009C968C909C979D965C909D979E964C90D1
:104C00009E979F963C909F97D0962C908B2D8A29AB
:104C100089298829852984298329822909F476C04C
:104C2000D301ED91FC910190F081E02D2B2D3A2DD7
:104C3000492D582D652D742D832D922D8E010F5FDA
:104C40001F4FACE0EA2EF12C1995882309F45EC0C1
:104C5000B5EEB983D301ED91FC910480F581E02D8F
:104C60002B2D3A2D492D582D652D742D832D922DE8
:104C70008E010F5F1F4F1995882309F447C08C855B
:104C80008F3079F57B2D705E81E07B1508F080E038
:104C9000682F6A0D81E06A1508F080E0582F590DE1
:104CA00081E0591508F080E0482F480D81E0481553
:104CB00008F080E0382F350D81E0351508F080E0F0
:104CC000282F240D81E0241508F080E0830D91E069
:104CD000831508F090E05B014A012901382E290E66
:104CE0009FCFF60141A152A163A174A141155105C5
:104CF0006105710539F0C3010E94091D20E030E013
:104D0000882311F021E030E0822F01C080E02C9652
:104D10000FB6F894DEBF0FBECDBFCF91DF911F91CC
:104D20000F91FF90EF90DF90CF90BF90AF909F904A
:104D30008F907F906F905F904F903F902F9008954D
:104D40002F923F924F925F926F927F928F929F929B
:104D5000AF92BF92CF92DF92EF92FF920F931F9389
:104D6000DC01009749F420E030E040E050E060E0F2
:104D700070E080E090E030C0ED91FC91119780856B
:104D800052962D913D914D915C9155975896ED918C
:104D9000FC9159978B3041F412E056954795379521
:104DA00027951A95D1F704C05695479537952795BD
:104DB000225030404040504059016A01A60160E055
:104DC00070E080E090E05F01CC24DD24EE24FF243D
:104DD00000E010E00E9477411F910F91FF90EF904B
:104DE000DF90CF90BF90AF909F908F907F906F900B
:104DF0005F904F903F902F9008952F923F924F9247
:104E00005F926F927F928F929F92AF92BF92CF925A
:104E1000DF92EF92FF920F931F93DF93CF93CDB763
:104E2000DEB7E0970FB6F894DEBF0FBECDBF3C01F2
:104E3000009709F4F8C019821A821B821C8280E252
:104E400090E09E838D83D3011A96BC91B9A7F3019C
:104E5000F385FAA7D3011C96BC91BBA7F301F58596
:104E6000FCA7D3011E96BC91BDA7F301F785FEA751
:104E7000D3015096BC91BFA7F301F189F8ABD301E0
:104E800052962D903D904D905C905597ADC0BEEFE1
:104E90002B16BFEF3B06B0E04B06B0E05B0628F0F8
:104EA000EEEFFFEFF8A7EFA302C038A62FA2D301C1
:104EB000ED91FC91A281B3818085863019F0EAE5FD
:104EC000F8E202C0E4E3F8E229A53AA54BA55CA507
:104ED0006DA57EA58FA598A98E01095F1F4FEE24B1
:104EE000FF246894E5F8CFA0D8A45F014E01089490
:104EF000811C911CFD011995882309F494C0CFA051
:104F0000D8A45601CC24DD24EE24FF248701F9A582
:104F1000FA0D91E0B9A5FB1708F090E08AA58B0D7A
:104F200021E0EAA58E1708F020E0392F380F91E034
:104F3000381708F090E0292B8BA58C0D51E09BA52C
:104F4000891708F050E0422F480F91E0481708F009
:104F500090E0592B8CA58D0D21E0ACA58A1708F0A7
:104F600020E0580F91E0581708F090E0292B8DA50C
:104F70008E0D71E0BDA58B1708F070E0622F680FF1
:104F800091E0681708F090E0792B8EA58F0D21E055
:104F9000EEA58E1708F020E0780F91E0781708F062
:104FA00090E0292B9FA5900FE1E08FA5981708F0BE
:104FB000E0E0822F890F21E0891708F020E0E22B42
:104FC00098A9910FF9A73AA74BA75CA76DA77EA751
:104FD0008FA79E0F98ABEFA1F8A5CF01A0E0B0E09E
:104FE000281A390A4A0A5B0A21143104410451047F
:104FF00009F04DCFD30158964D915C915997298076
:105000003A804B805C809A0140E050E060E070E0C4
:1050100080E090E051016201EE24FF2400E010E006
:105020000E94774108C020E030E040E050E060E0BE
:1050300070E080E090E0E0960FB6F894DEBF0FBE1F
:10504000CDBFCF91DF911F910F91FF90EF90DF9037
:10505000CF90BF90AF909F908F907F906F905F9018
:105060004F903F902F900895EF92FF92CF93DF9350
:10507000EC01F7014481558120E030E012C08881C5
:105080009981892B59F480819181A281B381019604
:10509000A11DB11D80839183A283B3832E5F3F4FF7
:1050A00022962417350758F381E0DF91CF91FF90C6
:1050B000EF900895EF92FF92CF93DF93EC01F70109
:1050C0004481558120E030E016C088819981AA8111
:1050D000BB810097A105B10559F480819181A2811E
:1050E000B3810196A11DB11D80839183A283B383F7
:1050F0002C5F3F4F24962417350738F381E0DF916A
:10510000CF91FF90EF9008952F923F924F925F9230
:105110006F927F928F929F92AF92BF92CF92DF92C7
:10512000EF92FF920F931F93DF93CF93CDB7DEB72C
:1051300062970FB6F894DEBF0FBECDBF9A8B898BF6
:10514000423051056105710510F480E0A2C08989E3
:105150009A89892B49F420E030E040E050E060E09B
:1051600070E010E090E07BC04250504060407040E2
:105170005A016B01E989FA89208C318C9A01A601C8
:1051800060E070E080E090E05101CC24DD24EE246A
:10519000FF2400E010E00E947741C92EE989FA89D6
:1051A000B28DB38CA48D158DF68CE78CD0A001A1A7
:1051B000B20FE1E0B21708F0E0E0232F2B0DF1E091
:1051C000231708F0F0E03E2F320FE1E0321708F02D
:1051D000E0E0FE2B242F2A0FA1E0241708F0A0E026
:1051E0004F2F420FE1E0421708F0E0E0AE2B252FF1
:1051F000210FF1E0251708F0F0E05A2F520FE1E0FF
:10520000521708F0E0E0FE2B262F2F0DA1E0261705
:1052100008F0A0E06F2F620FE1E0621708F0E0E015
:10522000AE2B272F2E0DF1E0271708F0F0E07A2F94
:10523000720FE1E0721708F0E0E0FE2B282F2D0D31
:10524000E1E0281708F0E0E08F2F820F91E082174D
:1052500008F090E09E2B0C0D2B2F182F900FDE01E5
:10526000119680E1FD0111928A95E9F7E989FA89A1
:10527000C080D180E08CF18CF60186809780812FF0
:105280008D01EBE4CE2EE2E2DE2EAA24BB24F40153
:10529000199562960FB6F894DEBF0FBECDBFCF91C1
:1052A000DF911F910F91FF90EF90DF90CF90BF9013
:1052B000AF909F908F907F906F905F904F903F90B6
:1052C0002F9008952F923F924F925F926F927F920C
:1052D0008F929F92AF92BF92CF92DF92EF92FF9206
:1052E0000F931F93DF93CF93CDB7DEB7C254D04057
:1052F0000FB6F894DEBF0FBECDBF9AAF89AFDB010A
:10530000009709F463C26115710509F45FC2FC01DD
:105310000190F081E02DF8AFEFAB208D318D3EABE9
:105320002DABFC0143A954A965A976A949AB5AAB99
:105330006BAB7CAB27A930AD4DA95EA9241735070F
:1053400008F0F2C1AE014F5F5F4F86E0FA011192A3
:105350008A95E9F781E3FD0111928A95E9F749A958
:105360005AA96BA97CA9411551056105710509F080
:10537000E6C1EFA9F8AD80819181FC0180858B3079
:1053800059F4EFA9F8AD42A553A564A575A549AB9D
:105390005AAB6BAB7CABD3C1EFA9F8AD028CF38DEC
:1053A000E02DFEABEDABEFA9F8AD82A193A14DA925
:1053B0005EA9481B590B5EAB4DABC1C14FA558A9A7
:1053C0009A0140E050E060E070E080E090E02FA3C0
:1053D00038A749A75AA76BA77CA78DA79EA769A93D
:1053E0007AA98BA99CA9611571058105910509F020
:1053F00072C0AFA9B8AD92962C91929793968C916A
:10540000939794965C91949795966C9195979696B0
:105410007C91969797961C9197979896AC91EFA947
:10542000F8ADB1A5FFA12F0F91E02F1708F090E084
:1054300048A5840F41E0E8A58E1708F040E0392F19
:10544000380F91E0381708F090E0492B89A5850FB7
:1054500051E0F9A58F1708F050E0480F91E0481788
:1054600008F090E0592B8AA5860F61E09AA589176C
:1054700008F060E0580F91E0581708F090E0692BB1
:105480008BA5870F71E0EBA58E1708F070E0680F11
:1054900091E0681708F090E0792B8CA5810FF1E07E
:1054A0009CA5891708F0F0E0780F91E0781708F0D4
:1054B00090E0F92BEDA5EA0FA1E08DA5E81708F023
:1054C000A0E08F2F8E0F91E08E1708F090E09A2BBE
:1054D000AEA5BA0FE0C0EFA9F8AD309709F481C0CE
:1054E00029A93AA94BA95CA92230310541055105EA
:1054F00008F477C0208C318C2BAD3CAD4DAD5EAD4A
:1055000060E070E080E090E05101CC24DD24EE24E6
:10551000FF2400E010E00E947741EFA9F8ADA28DD2
:10552000F38CB48D158DD68CC78CB0A001A1A20FC1
:10553000F1E0A21708F0F0E0232F2F0DE1E0231790
:1055400008F0E0E0EF2EE20E31E0E21608F030E085
:10555000E32B242F2B0FF1E0241708F0F0E0FE2EB0
:10556000F20E31E0F21608F030E0F32B252F210F78
:1055700041E0251708F040E0F20F31E0F21708F0A3
:1055800030E0432B262F2D0D51E0261708F050E078
:10559000E42FE20F31E0E21708F030E0532B272F21
:1055A0002C0D41E0271708F040E0520F31E0521770
:1055B00008F030E0432B282F2B0D31E0281708F09E
:1055C00030E0420F81E0421708F080E0B32FB82BA3
:1055D000090F2A2F9E2D6F2D7F2FA52F142FB00F6F
:1055E00008C020E090E060E070E0E0E0A0E010E0C3
:1055F000B0E00FA1020F31E0021708F030E088A5FB
:10560000890F41E0891708F040E0380F91E0381722
:1056100008F090E0492B89A5860F51E0861708F025
:1056200050E0480F91E0481708F090E0592B8AA508
:10563000870F61E0871708F060E0580F91E0581776
:1056400008F090E0692B8BA58E0F71E08E1708F0A3
:1056500070E0680F91E0681708F090E0792B8CA556
:105660008A0FF1E08A1708F0F0E0780F91E07817E0
:1056700008F090E0F92BEDA5E10FA1E0E11708F0AB
:10568000A0E08F2F8E0F91E08E1708F090E09A2BFC
:10569000FEA5BF0F202F9B0F1C821B82AFA9B8ADA8
:1056A000ED91FC91CDA8DEA8AFA5B8A9CA1ADB0A76
:1056B0000280F381E02D8E01095F1F4FB0E2EB2ED7
:1056C000F12CA1E0AA2EACE2BA2E4E010894811C66
:1056D000911C1995882309F479C08B819C81EFA5D1
:1056E000F8A9E80FF91FF8ABEFA72DA93EA9E2171B
:1056F000F30708F453C08FA998AD49A95AA96BA91B
:105700007CA90E948C1B69AB7AAB8BAB9CAB20E075
:1057100030E0611571058105910599F48E8188232A
:1057200009F040C0E9ADFAAD83A194A1A5A1B6A14D
:1057300083AB94ABA5ABB6AB10AE17AA47C0BA8388
:10574000A98338AB2FA729A93AA94BA95CA9225054
:1057500030404040504029AB3AAB4BAB5CABBA0158
:10576000A90180E090E0A0E0B0E04BAF5CAF6DAF8E
:105770007EAF8FAF21969FAF21972296AFAF229732
:105780002396BFAF239789A99AA9ABA9BCA9029672
:10579000A11DB11D89AB9AABABABBCAB8E8188238D
:1057A00009F40CCE29A93AA94BA95CA9A9ADBAADB7
:1057B000D3962D933D934D935C93D697EFA5F8A97F
:1057C000D896FC93EE93D7978E8101C080E0CE5B94
:1057D000DF4F0FB6F894DEBF0FBECDBFCF91DF9184
:1057E0001F910F91FF90EF90DF90CF90BF90AF90FF
:1057F0009F908F907F906F905F904F903F902F90F1
:105800000895AF92BF92CF92DF92EF92FF920F93E3
:105810001F93CF93DF936C01B62EA72EB701D7014C
:10582000CD91DC91119712968D919C911397809652
:1058300013969C938E931297F6019081953E11F0EA
:10584000992321F4DB0114961C92D9C0F6018385BB
:105850008F3009F040C0D70114969C91992319F01C
:105860008585981791F081E3FE0111928A95E9F7F9
:10587000D6011D968C91FB01848309A71AA72BA73B
:105880003CA74DA75EA7BFA6A8AAD6018C9190E021
:105890008F7390702DE030E0829FA001839F500DA8
:1058A000929F500D11244D505040ACE1B4E0C40F14
:1058B000D51F0DC08D91F601E80FF11D80818993F0
:1058C0004F5F5F4FE4E0A932BE0709F498C04F3143
:1058D000510580F394C08881882399F0F701B48141
:1058E000F601A1E0892F8695979599279795982B92
:1058F0008181980FAF5F3196AB30A1F7B91709F4EA
:105900005AC081E3DE011D928A95E9F709A71AA71B
:105910002BA73CA74DA75EA7BFA6A8AAA601DE019C
:10592000860120E0F8019081903299F09C93F60175
:10593000848583FF08C0F8018081813420F08B3595
:1059400010F4905E9C932F5F0F5F1F4F11962830CD
:1059500049F78881853011F485EE8883D601189641
:105960008C91803221F1FE01E20FF11D8EE28083E5
:10597000322F3F5F2C5FFA0190859032B9F0FE0123
:10598000E30FF11D9083D6011C968C9184FF09C012
:10599000DA0118968C91813420F08B3510F4905EEA
:1059A00090833F5F4F5F5F4F321729F7232FFE0130
:1059B000E20FF11D1082F601838588A3228D338DBD
:1059C00040E050E084899589A0E0B0E0DC019927AF
:1059D0008827822B932BA42BB52B89A39AA3ABA347
:1059E000BCA3848D958DA68DB78D8DA39EA3AFA3EB
:1059F000B8A781E0DB0115968C9380E001C081E0BF
:105A0000DF91CF911F910F91FF90EF90DF90CF909A
:105A1000BF90AF9008952F923F924F925F926F92F6
:105A20007F928F929F92AF92BF92CF92DF92EF922E
:105A3000FF920F931F93DF93CF93CDB7DEB7CD5473
:105A4000D0400FB6F894DEBF0FBECDBF2C0100973B
:105A500009F4D9C3DC0114968D919C911597892B7B
:105A600009F4D1C316968D919C911797892B09F44F
:105A7000CAC3E6C3E4EBF6E082E3DF011D928A9538
:105A8000E9F75092B5064092B406F201A184B284BF
:105A9000C384D4849501A60160E070E080E090E0CA
:105AA00009E00E94F1422EAF3FAF21964FAF219700
:105AB00022965FAF229723966FAF239724967FAFEE
:105AC000249725968FAF259726969FAF2697255F1B
:105AD00031E0FEAD2F1708F030E0EFAC3E0D41E0B5
